S0200000736F6E61725F73656E736F725F696E746572666163696E672E73726563FF
S11300000C942A000C94D4010C9447000C944700DF
S11300100C9447000C9447000C9447000C94470040
S11300200C9447000C9447000C9447000C94470030
S11300300C9447000C9447000C9447000C94470020
S11300400C9447000C9447000C9447000C94470010
S11300500C94470011241FBECFE5D8E0DEBFCDBF0E
S113006010E0A0E6B0E0E6EEF9E002C005900D92E3
S1130070A437B107D9F720E0A4E7B0E001C01D928E
S1130080A637B207E1F70E9496010C94F1040C9490
S11300900000882324F495B3906895BB03C095B3FE
S11300A09F7795BB86FF04C095B3906495BB03C04E
S11300B095B39F7B95BB85FF04C095B3906295BBB8
S11300C003C095B39F7D95BB84FF04C085B3806155
S11300D085BB089585B38F7E85BB0895CF93C82FC4
S11300E0807F0E94490085B3826085BB85B38860A8
S11300F085BB8FEC97E00197F1F700C0000085B352
S1130100877F85BB85B38D7F85BB8FEC97E0019797
S1130110F1F700C000008C2F8295807F0E94490077
S113012085B3826085BB85B3886085BB8FEC97E01F
S11301300197F1F700C0000085B3877F85BB85B3C5
S11301408D7F85BB8FEC97E00197F1F700C000002D
S1130150CF910895CF93C82F807F0E94490085B323
S1130160886085BB8FEC97E00197F1F700C0000031
S113017085B3877F85BB8FEC97E00197F1F700C0CB
S113018000008C2F8295807F0E94490085B388608F
S113019085BB8FEC97E00197F1F700C0000085B3B1
S11301A0877F85BB8FEC97E00197F1F700C00000D3
S11301B0CF9108958FE295E70197F1F700C0000011
S11301C080E00E94490085B38D7F85BB85B38B7F1A
S11301D085BB85B3877F85BB84B3806184BB84B3CF
S11301E0806284BB84B3806484BB84B3806884BB32
S11301F084B3826084BB84B3846084BB84B388602A
S113020084BB80E30E94490085B3886085BB8FEC82
S113021097E00197F1F700C0000085B3877F85BBA5
S11302208FEC97E00197F1F700C0000080E30E9493
S1130230490085B3886085BB8FEC97E00197F1F79F
S113024000C0000085B3877F85BB8FEC97E00197E2
S1130250F1F700C0000080E20E94490085B3886085
S113026085BB8FEC97E00197F1F700C0000085B3E0
S1130270877F85BB8FEC97E00197F1F700C0000002
S113028088E20E94AA008CE00E94AA0008956230CD
S113029031F0633031F0613029F4805C03C08C5E4E
S11302A001C08C5A80680E94AA000895CF93DF93FE
S11302B0EC0103C00E946E00219688818111FACF5F
S11302C0DF91CF91089587B3806187BB88B38F7E18
S11302D088BB81B38B7F81BB85B7816085BF8BB7BA
S11302E080648BBF089588B3806188BB8AE18A9556
S11302F0F1F700C088B38F7E88BB80917400909121
S11303007500892BD1F32091740030917500AFE909
S1130310B6E40E94F8011092750010927400929550
S113032082958F7089279F7089270895CF93DF93D3
S1130330CDB7DEB760970FB6F894DEBF0FBECDBF62
S11303400E94DA002FE788E391E02150804090403A
S1130350E1F700C000000E94630178940E947301D9
S11303609F938F9381E690E09F938F938E010F5F0D
S11303701F4F1F930F930E94070260E080E00E94CA
S11303804701C8010E9456012FEF84E39CE02150ED
S113039080409040E1F700C000000F900F900F9054
S11303A00F900F900F90DACF1F920F920FB60F920B
S11303B011248F939F9380916000882341F01DBC8A
S11303C01CBC8EB582608EBD109260000AC01EBC3B
S11303D08CB59DB5909375008093740081E08093F3
S11303E060009F918F910F900FBE0F901F901895F2
S11303F0A29FB001B39FC001A39F700D811D112462
S1130400911DB29F700D811D1124911D0895AEE0C0
S1130410B0E0EDE0F2E00C94C8040D891E8986E09A
S11304208C831A8309838FEF9FE79E838D83AE01AC
S1130430475E5F4F6F89788DCE0101960E94290235
S1130440EF81F885E00FF11F10822E96E4E00C9402
S1130450E404ABE0B0E0EFE2F2E00C94BA046C0127
S11304607B018A01FC0117821682838181FFCCC142
S1130470CE0101963C01F6019381F70193FD85912C
S113048093FF81917F01882309F4BAC1853239F43D
S113049093FD859193FF81917F01853229F4B60103
S11304A090E00E942004E7CF912C212C312CFFE115
S11304B0F315D8F08B3279F038F4803279F0833246
S11304C0A1F4232D20611DC08D3261F0803369F4C5
S11304D0232D216016C0832D8260382EE32DE46025
S11304E03E2E2AC0F32DF8601DC037FC2DC020ED30
S11304F0280F2A3040F08E32B9F436FC81C1232D06
S11305002064322E19C036FE06C08AE0989E200D63
S11305101124922E11C0EAE02E9E200D1124222EC9
S1130520F32DF0623F2E08C08C3621F4832D8068B1
S1130530382E02C0883641F4F70193FD859193FF6C
S113054081917F018111B3CF982F9F7D9554933072
S113055028F40C5F1F4F9FE399830DC0833631F05D
S1130560833771F0833509F059C021C0F8018081C7
S113057089830E5F1F4F88248394912C530113C0E9
S11305802801F2E04F0E511CF801A080B18036FE24
S113059003C0692D70E002C06FEF7FEFC5010E94B8
S11305A015044C018201F32DFF773F2E16C028015C
S11305B022E0420E511CF801A080B18036FE03C037
S11305C0692D70E002C06FEF7FEFC5010E940A043D
S11305D04C01F32DF0683F2E820133FC1BC0822DA9
S11305E090E088169906B0F4B60180E290E00E948B
S11305F020042A94F4CFF50137FC859137FE8191CC
S11306005F01B60190E00E94200421102A9421E0A9
S1130610821A91088114910471F7E8C0843611F0AC
S1130620893641F5F80137FE07C060817181828106
S113063093810C5F1F4F08C060817181072E000CED
S1130640880B990B0E5F1F4FF32DFF763F2E97FFFC
S113065009C090958095709561957F4F8F4F9F4FFE
S1130660F0683F2E2AE030E0A3010E945C04882E4B
S1130670861845C0853731F4232D2F7EB22E2AE00B
S113068030E025C0932D997FB92E8F36C1F018F430
S1130690883579F0B5C0803719F0883721F0B0C0BB
S11306A0E92FE061BE2EB4FE0DC0FB2DF460BF2E19
S11306B009C034FE0AC0292F2660B22E06C028E0E5
S11306C030E005C020E130E002C020E132E0F80172
S11306D0B7FE07C060817181828193810C5F1F4FD7
S11306E006C06081718180E090E00E5F1F4FA3011E
S11306F00E945C04882E8618FB2DFF773F2E36FE61
S11307000DC0232D2E7FA22E891458F434FE0BC065
S113071032FC09C0832D8E7EA82E05C0B82CA32CD4
S113072003C0B82C01C0B92CA4FE0FC0FE01E80D13
S1130730F11D8081803321F49A2D997EA92E09C060
S1130740A2FE06C0B394B39404C08A2D867809F03F
S1130750B394A3FC11C0A0FE06C0B21488F4280C04
S1130760922C9B180EC0B21460F4B60180E290E0A3
S11307700E942004B394F7CFB21418F42B1802C0CB
S1130780982C212CA4FE10C0B60180E390E00E94B6
S11307902004A2FE17C0A1FC03C088E790E002C0B9
S11307A088E590E0B6010CC08A2D867859F0A1FE48
S11307B002C08BE201C080E2A7FC8DE2B60190E0AA
S11307C00E942004891438F4B60180E390E00E946A
S11307D020049A94F7CF8A94F301E80DF11D8081E7
S11307E0B60190E00E9420048110F5CF222009F484
S11307F042CEB60180E290E00E9420042A94F6CF13
S1130800F6018681978102C08FEF9FEF2B96E2E17C
S11308100C94D604FC010590615070400110D8F787
S1130820809590958E0F9F1F0895FC016150704034
S113083001900110D8F7809590958E0F9F1F089511
S11308400F931F93CF93DF93FB01238121FD03C0FB
S11308508FEF9FEF2CC022FF16C046815781248161
S113086035814217530744F4A081B1819D012F5F64
S11308703F4F318320838C93268137812F5F3F4FF5
S11308803783268314C08B01EC01FB010084F185BE
S1130890E02D0995892BE1F6D80116968D919C914E
S11308A01797019617969C938E931697CE01DF9116
S11308B0CF911F910F910895FA01AA27283051F181
S11308C0203181F1E8946F936E7F6E5F7F4F8F4F7D
S11308D09F4FAF4FB1E03ED0B4E03CD0670F781FDC
S11308E0891F9A1FA11D680F791F8A1F911DA11DC1
S11308F06A0F711D811D911DA11D20D009F46894FA
S11309003F912AE0269F11243019305D3193DEF6A1
S1130910CF010895462F4770405D4193B3E00FD057
S1130920C9F7F6CF462F4F70405D4A3318F0495D42
S113093031FD4052419302D0A9F7EACFB4E0A69525
S11309409795879577956795BA95C9F70097610547
S1130950710508959B01AC010A2E0694579547959D
S113096037952795BA95C9F7620F731F841F951F92
S1130970A01D08952F923F924F925F926F927F92A3
S11309808F929F92AF92BF92CF92DF92EF92FF929B
S11309900F931F93CF93DF93CDB7DEB7CA1BDB0B47
S11309A00FB6F894DEBF0FBECDBF09942A883988EC
S11309B048885F846E847D848C849B84AA84B984F3
S11309C0C884DF80EE80FD800C811B81AA81B981FF
S11309D0CE0FD11D0FB6F894DEBF0FBECDBFED0113
S10909E00895F894FFCF16
S11309E60144697374616E63653A202575636D20ED
S10709F62020200099
S9030000FC
